{
    "_format": "hh-sol-artifact-1",
    "contractName": "HarryPotter",
    "sourceName": "contracts/HarryPotter.sol",
    "abi": [
        {
            "inputs": [
                {
                    "internalType": "string[]",
                    "name": "characterNames",
                    "type": "string[]"
                },
                {
                    "internalType": "string[]",
                    "name": "characterImageURIs",
                    "type": "string[]"
                },
                {
                    "internalType": "uint256[]",
                    "name": "characterHp",
                    "type": "uint256[]"
                },
                {
                    "internalType": "uint256[]",
                    "name": "characterAttackDmg",
                    "type": "uint256[]"
                },
                {
                    "internalType": "string",
                    "name": "bossName",
                    "type": "string"
                },
                {
                    "internalType": "string",
                    "name": "bossImageURI",
                    "type": "string"
                },
                {
                    "internalType": "uint256",
                    "name": "bossHp",
                    "type": "uint256"
                },
                {
                    "internalType": "uint256",
                    "name": "bossAttackDamage",
                    "type": "uint256"
                }
            ],
            "stateMutability": "nonpayable",
            "type": "constructor"
        },
        {
            "anonymous": false,
            "inputs": [
                {
                    "indexed": true,
                    "internalType": "address",
                    "name": "owner",
                    "type": "address"
                },
                {
                    "indexed": true,
                    "internalType": "address",
                    "name": "approved",
                    "type": "address"
                },
                {
                    "indexed": true,
                    "internalType": "uint256",
                    "name": "tokenId",
                    "type": "uint256"
                }
            ],
            "name": "Approval",
            "type": "event"
        },
        {
            "anonymous": false,
            "inputs": [
                {
                    "indexed": true,
                    "internalType": "address",
                    "name": "owner",
                    "type": "address"
                },
                {
                    "indexed": true,
                    "internalType": "address",
                    "name": "operator",
                    "type": "address"
                },
                {
                    "indexed": false,
                    "internalType": "bool",
                    "name": "approved",
                    "type": "bool"
                }
            ],
            "name": "ApprovalForAll",
            "type": "event"
        },
        {
            "anonymous": false,
            "inputs": [
                {
                    "indexed": true,
                    "internalType": "address",
                    "name": "from",
                    "type": "address"
                },
                {
                    "indexed": true,
                    "internalType": "address",
                    "name": "to",
                    "type": "address"
                },
                {
                    "indexed": true,
                    "internalType": "uint256",
                    "name": "tokenId",
                    "type": "uint256"
                }
            ],
            "name": "Transfer",
            "type": "event"
        },
        {
            "inputs": [
                {
                    "internalType": "address",
                    "name": "to",
                    "type": "address"
                },
                {
                    "internalType": "uint256",
                    "name": "tokenId",
                    "type": "uint256"
                }
            ],
            "name": "approve",
            "outputs": [],
            "stateMutability": "nonpayable",
            "type": "function"
        },
        {
            "inputs": [],
            "name": "attackBoss",
            "outputs": [],
            "stateMutability": "nonpayable",
            "type": "function"
        },
        {
            "inputs": [
                {
                    "internalType": "address",
                    "name": "owner",
                    "type": "address"
                }
            ],
            "name": "balanceOf",
            "outputs": [
                {
                    "internalType": "uint256",
                    "name": "",
                    "type": "uint256"
                }
            ],
            "stateMutability": "view",
            "type": "function"
        },
        {
            "inputs": [],
            "name": "bigBoss",
            "outputs": [
                {
                    "internalType": "string",
                    "name": "name",
                    "type": "string"
                },
                {
                    "internalType": "string",
                    "name": "imageURI",
                    "type": "string"
                },
                {
                    "internalType": "uint256",
                    "name": "hp",
                    "type": "uint256"
                },
                {
                    "internalType": "uint256",
                    "name": "maxHp",
                    "type": "uint256"
                },
                {
                    "internalType": "uint256",
                    "name": "attackDamage",
                    "type": "uint256"
                }
            ],
            "stateMutability": "view",
            "type": "function"
        },
        {
            "inputs": [
                {
                    "internalType": "uint256",
                    "name": "tokenId",
                    "type": "uint256"
                }
            ],
            "name": "getApproved",
            "outputs": [
                {
                    "internalType": "address",
                    "name": "",
                    "type": "address"
                }
            ],
            "stateMutability": "view",
            "type": "function"
        },
        {
            "inputs": [
                {
                    "internalType": "address",
                    "name": "owner",
                    "type": "address"
                },
                {
                    "internalType": "address",
                    "name": "operator",
                    "type": "address"
                }
            ],
            "name": "isApprovedForAll",
            "outputs": [
                {
                    "internalType": "bool",
                    "name": "",
                    "type": "bool"
                }
            ],
            "stateMutability": "view",
            "type": "function"
        },
        {
            "inputs": [
                {
                    "internalType": "uint256",
                    "name": "_characterIndex",
                    "type": "uint256"
                }
            ],
            "name": "mintCharacterNFT",
            "outputs": [],
            "stateMutability": "nonpayable",
            "type": "function"
        },
        {
            "inputs": [],
            "name": "name",
            "outputs": [
                {
                    "internalType": "string",
                    "name": "",
                    "type": "string"
                }
            ],
            "stateMutability": "view",
            "type": "function"
        },
        {
            "inputs": [
                {
                    "internalType": "uint256",
                    "name": "",
                    "type": "uint256"
                }
            ],
            "name": "nftHolderAttributes",
            "outputs": [
                {
                    "internalType": "uint256",
                    "name": "characterIndex",
                    "type": "uint256"
                },
                {
                    "internalType": "string",
                    "name": "name",
                    "type": "string"
                },
                {
                    "internalType": "string",
                    "name": "imageURI",
                    "type": "string"
                },
                {
                    "internalType": "uint256",
                    "name": "hp",
                    "type": "uint256"
                },
                {
                    "internalType": "uint256",
                    "name": "maxHp",
                    "type": "uint256"
                },
                {
                    "internalType": "uint256",
                    "name": "attackDamage",
                    "type": "uint256"
                }
            ],
            "stateMutability": "view",
            "type": "function"
        },
        {
            "inputs": [
                {
                    "internalType": "address",
                    "name": "",
                    "type": "address"
                }
            ],
            "name": "nftHolders",
            "outputs": [
                {
                    "internalType": "uint256",
                    "name": "",
                    "type": "uint256"
                }
            ],
            "stateMutability": "view",
            "type": "function"
        },
        {
            "inputs": [
                {
                    "internalType": "uint256",
                    "name": "tokenId",
                    "type": "uint256"
                }
            ],
            "name": "ownerOf",
            "outputs": [
                {
                    "internalType": "address",
                    "name": "",
                    "type": "address"
                }
            ],
            "stateMutability": "view",
            "type": "function"
        },
        {
            "inputs": [
                {
                    "internalType": "address",
                    "name": "from",
                    "type": "address"
                },
                {
                    "internalType": "address",
                    "name": "to",
                    "type": "address"
                },
                {
                    "internalType": "uint256",
                    "name": "tokenId",
                    "type": "uint256"
                }
            ],
            "name": "safeTransferFrom",
            "outputs": [],
            "stateMutability": "nonpayable",
            "type": "function"
        },
        {
            "inputs": [
                {
                    "internalType": "address",
                    "name": "from",
                    "type": "address"
                },
                {
                    "internalType": "address",
                    "name": "to",
                    "type": "address"
                },
                {
                    "internalType": "uint256",
                    "name": "tokenId",
                    "type": "uint256"
                },
                {
                    "internalType": "bytes",
                    "name": "_data",
                    "type": "bytes"
                }
            ],
            "name": "safeTransferFrom",
            "outputs": [],
            "stateMutability": "nonpayable",
            "type": "function"
        },
        {
            "inputs": [
                {
                    "internalType": "address",
                    "name": "operator",
                    "type": "address"
                },
                {
                    "internalType": "bool",
                    "name": "approved",
                    "type": "bool"
                }
            ],
            "name": "setApprovalForAll",
            "outputs": [],
            "stateMutability": "nonpayable",
            "type": "function"
        },
        {
            "inputs": [
                {
                    "internalType": "bytes4",
                    "name": "interfaceId",
                    "type": "bytes4"
                }
            ],
            "name": "supportsInterface",
            "outputs": [
                {
                    "internalType": "bool",
                    "name": "",
                    "type": "bool"
                }
            ],
            "stateMutability": "view",
            "type": "function"
        },
        {
            "inputs": [],
            "name": "symbol",
            "outputs": [
                {
                    "internalType": "string",
                    "name": "",
                    "type": "string"
                }
            ],
            "stateMutability": "view",
            "type": "function"
        },
        {
            "inputs": [
                {
                    "internalType": "uint256",
                    "name": "_tokenId",
                    "type": "uint256"
                }
            ],
            "name": "tokenURI",
            "outputs": [
                {
                    "internalType": "string",
                    "name": "",
                    "type": "string"
                }
            ],
            "stateMutability": "view",
            "type": "function"
        },
        {
            "inputs": [
                {
                    "internalType": "address",
                    "name": "from",
                    "type": "address"
                },
                {
                    "internalType": "address",
                    "name": "to",
                    "type": "address"
                },
                {
                    "internalType": "uint256",
                    "name": "tokenId",
                    "type": "uint256"
                }
            ],
            "name": "transferFrom",
            "outputs": [],
            "stateMutability": "nonpayable",
            "type": "function"
        }
    ],
    "bytecode": "0x60806040523480156200001157600080fd5b5060405162004e7238038062004e72833981810160405281019062000037919062000a85565b6040518060400160405280600681526020017f4865726f657300000000000000000000000000000000000000000000000000008152506040518060400160405280600481526020017f4845524f000000000000000000000000000000000000000000000000000000008152508160009080519060200190620000bb929190620007ed565b508060019080519060200190620000d4929190620007ed565b5050506040518060a0016040528085815260200184815260200183815260200183815260200182815250600960008201518160000190805190602001906200011e929190620007ed565b5060208201518160010190805190602001906200013d929190620007ed565b50604082015181600201556060820151816003015560808201518160040155905050620002c06040518060600160405280602a815260200162004e48602a9139600960000180546200018f9062000e08565b80601f0160208091040260200160405190810160405280929190818152602001828054620001bd9062000e08565b80156200020e5780601f10620001e2576101008083540402835291602001916200020e565b820191906000526020600020905b815481529060010190602001808311620001f057829003601f168201915b5050505050600960020154600960010180546200022b9062000e08565b80601f0160208091040260200160405190810160405280929190818152602001828054620002599062000e08565b8015620002aa5780601f106200027e57610100808354040283529160200191620002aa565b820191906000526020600020905b8154815290600101906020018083116200028c57829003601f168201915b50505050506200070260201b6200175f1760201c565b60005b8851811015620006dc5760076040518060c001604052808381526020018b84815181106200031a577f4e487b7100000000000000000000000000000000000000000000000000000000600052603260045260246000fd5b602002602001015181526020018a848151811062000361577f4e487b7100000000000000000000000000000000000000000000000000000000600052603260045260246000fd5b60200260200101518152602001898481518110620003a8577f4e487b7100000000000000000000000000000000000000000000000000000000600052603260045260246000fd5b60200260200101518152602001898481518110620003ef577f4e487b7100000000000000000000000000000000000000000000000000000000600052603260045260246000fd5b6020026020010151815260200188848151811062000436577f4e487b7100000000000000000000000000000000000000000000000000000000600052603260045260246000fd5b6020026020010151815250908060018154018082558091505060019003906000526020600020906006020160009091909190915060008201518160000155602082015181600101908051906020019062000492929190620007ed565b506040820151816002019080519060200190620004b1929190620007ed565b50606082015181600301556080820151816004015560a0820151816005015550506000600782815481106200050f577f4e487b7100000000000000000000000000000000000000000000000000000000600052603260045260246000fd5b90600052602060002090600602016040518060c001604052908160008201548152602001600182018054620005449062000e08565b80601f0160208091040260200160405190810160405280929190818152602001828054620005729062000e08565b8015620005c35780601f106200059757610100808354040283529160200191620005c3565b820191906000526020600020905b815481529060010190602001808311620005a557829003601f168201915b50505050508152602001600282018054620005de9062000e08565b80601f01602080910402602001604051908101604052809291908181526020018280546200060c9062000e08565b80156200065d5780601f1062000631576101008083540402835291602001916200065d565b820191906000526020600020905b8154815290600101906020018083116200063f57829003601f168201915b5050505050815260200160038201548152602001600482015481526020016005820154815250509050620006c460405180606001604052806025815260200162004e23602591398260200151836060015184604001516200070260201b6200175f1760201c565b50600181620006d4919062000d6b565b9050620002c3565b50620006f46006620007ae60201b620018011760201c565b505050505050505062000f2c565b620007a8848484846040516024016200071f949392919062000c30565b6040516020818303038152906040527f8d142cdd000000000000000000000000000000000000000000000000000000007bffffffffffffffffffffffffffffffffffffffffffffffffffffffff19166020820180517bffffffffffffffffffffffffffffffffffffffffffffffffffffffff8381831617835250505050620007c460201b60201c565b50505050565b6001816000016000828254019250508190555050565b60008151905060006a636f6e736f6c652e6c6f679050602083016000808483855afa5050505050565b828054620007fb9062000e08565b90600052602060002090601f0160209004810192826200081f57600085556200086b565b82601f106200083a57805160ff19168380011785556200086b565b828001600101855582156200086b579182015b828111156200086a5782518255916020019190600101906200084d565b5b5090506200087a91906200087e565b5090565b5b80821115620008995760008160009055506001016200087f565b5090565b6000620008b4620008ae8462000cbb565b62000c92565b90508083825260208201905082856020860282011115620008d457600080fd5b60005b858110156200092357815167ffffffffffffffff811115620008f857600080fd5b80860162000907898262000a41565b85526020850194506020840193505050600181019050620008d7565b5050509392505050565b6000620009446200093e8462000cea565b62000c92565b905080838252602082019050828560208602820111156200096457600080fd5b60005b858110156200099857816200097d888262000a6e565b84526020840193506020830192505060018101905062000967565b5050509392505050565b6000620009b9620009b38462000d19565b62000c92565b905082815260208101848484011115620009d257600080fd5b620009df84828562000dd2565b509392505050565b600082601f830112620009f957600080fd5b815162000a0b8482602086016200089d565b91505092915050565b600082601f83011262000a2657600080fd5b815162000a388482602086016200092d565b91505092915050565b600082601f83011262000a5357600080fd5b815162000a65848260208601620009a2565b91505092915050565b60008151905062000a7f8162000f12565b92915050565b600080600080600080600080610100898b03121562000aa357600080fd5b600089015167ffffffffffffffff81111562000abe57600080fd5b62000acc8b828c01620009e7565b985050602089015167ffffffffffffffff81111562000aea57600080fd5b62000af88b828c01620009e7565b975050604089015167ffffffffffffffff81111562000b1657600080fd5b62000b248b828c0162000a14565b965050606089015167ffffffffffffffff81111562000b4257600080fd5b62000b508b828c0162000a14565b955050608089015167ffffffffffffffff81111562000b6e57600080fd5b62000b7c8b828c0162000a41565b94505060a089015167ffffffffffffffff81111562000b9a57600080fd5b62000ba88b828c0162000a41565b93505060c062000bbb8b828c0162000a6e565b92505060e062000bce8b828c0162000a6e565b9150509295985092959890939650565b600062000beb8262000d4f565b62000bf7818562000d5a565b935062000c0981856020860162000dd2565b62000c148162000f01565b840191505092915050565b62000c2a8162000dc8565b82525050565b6000608082019050818103600083015262000c4c818762000bde565b9050818103602083015262000c62818662000bde565b905062000c73604083018562000c1f565b818103606083015262000c87818462000bde565b905095945050505050565b600062000c9e62000cb1565b905062000cac828262000e3e565b919050565b6000604051905090565b600067ffffffffffffffff82111562000cd95762000cd862000ed2565b5b602082029050602081019050919050565b600067ffffffffffffffff82111562000d085762000d0762000ed2565b5b602082029050602081019050919050565b600067ffffffffffffffff82111562000d375762000d3662000ed2565b5b62000d428262000f01565b9050602081019050919050565b600081519050919050565b600082825260208201905092915050565b600062000d788262000dc8565b915062000d858362000dc8565b9250827fffffffffffffffffffffffffffffffffffffffffffffffffffffffffffffffff0382111562000dbd5762000dbc62000e74565b5b828201905092915050565b6000819050919050565b60005b8381101562000df257808201518184015260208101905062000dd5565b8381111562000e02576000848401525b50505050565b6000600282049050600182168062000e2157607f821691505b6020821081141562000e385762000e3762000ea3565b5b50919050565b62000e498262000f01565b810181811067ffffffffffffffff8211171562000e6b5762000e6a62000ed2565b5b80604052505050565b7f4e487b7100000000000000000000000000000000000000000000000000000000600052601160045260246000fd5b7f4e487b7100000000000000000000000000000000000000000000000000000000600052602260045260246000fd5b7f4e487b7100000000000000000000000000000000000000000000000000000000600052604160045260246000fd5b6000601f19601f8301169050919050565b62000f1d8162000dc8565b811462000f2957600080fd5b50565b613ee78062000f3c6000396000f3fe608060405234801561001057600080fd5b50600436106101165760003560e01c806395d89b41116100a2578063b88d4fde11610071578063b88d4fde1461030e578063c87b56dd1461032a578063d4f24c5b1461035a578063e985e9c514610364578063f8b81ef71461039457610116565b806395d89b411461027d57806398da4c951461029b578063a22cb465146102d0578063a9c32679146102ec57610116565b806323b872dd116100e957806323b872dd146101b557806342842e0e146101d15780636352211e146101ed57806370a082311461021d5780637df124a11461024d57610116565b806301ffc9a71461011b57806306fdde031461014b578063081812fc14610169578063095ea7b314610199575b600080fd5b610135600480360381019061013091906129d4565b6103b0565b6040516101429190612f72565b60405180910390f35b610153610492565b6040516101609190612f8d565b60405180910390f35b610183600480360381019061017e9190612a26565b610524565b6040516101909190612f0b565b60405180910390f35b6101b360048036038101906101ae9190612998565b6105a9565b005b6101cf60048036038101906101ca9190612892565b6106c1565b005b6101eb60048036038101906101e69190612892565b610721565b005b61020760048036038101906102029190612a26565b610741565b6040516102149190612f0b565b60405180910390f35b6102376004803603810190610232919061282d565b6107f3565b604051610244919061330b565b60405180910390f35b6102676004803603810190610262919061282d565b6108ab565b604051610274919061330b565b60405180910390f35b6102856108c3565b6040516102929190612f8d565b60405180910390f35b6102b560048036038101906102b09190612a26565b610955565b6040516102c796959493929190613326565b60405180910390f35b6102ea60048036038101906102e5919061295c565b610aa1565b005b6102f4610c22565b60405161030595949392919061305c565b60405180910390f35b610328600480360381019061032391906128e1565b610d56565b005b610344600480360381019061033f9190612a26565b610db8565b6040516103519190612f8d565b60405180910390f35b610362610fd3565b005b61037e60048036038101906103799190612856565b6112f5565b60405161038b9190612f72565b60405180910390f35b6103ae60048036038101906103a99190612a26565b611389565b005b60007f80ac58cd000000000000000000000000000000000000000000000000000000007bffffffffffffffffffffffffffffffffffffffffffffffffffffffff1916827bffffffffffffffffffffffffffffffffffffffffffffffffffffffff1916148061047b57507f5b5e139f000000000000000000000000000000000000000000000000000000007bffffffffffffffffffffffffffffffffffffffffffffffffffffffff1916827bffffffffffffffffffffffffffffffffffffffffffffffffffffffff1916145b8061048b575061048a82611817565b5b9050919050565b6060600080546104a1906135f9565b80601f01602080910402602001604051908101604052809291908181526020018280546104cd906135f9565b801561051a5780601f106104ef5761010080835404028352916020019161051a565b820191906000526020600020905b8154815290600101906020018083116104fd57829003601f168201915b5050505050905090565b600061052f82611881565b61056e576040517f08c379a00000000000000000000000000000000000000000000000000000000081526004016105659061328b565b60405180910390fd5b6004600083815260200190815260200160002060009054906101000a900473ffffffffffffffffffffffffffffffffffffffff169050919050565b60006105b482610741565b90508073ffffffffffffffffffffffffffffffffffffffff168373ffffffffffffffffffffffffffffffffffffffff161415610625576040517f08c379a000000000000000000000000000000000000000000000000000000000815260040161061c906132cb565b60405180910390fd5b8073ffffffffffffffffffffffffffffffffffffffff166106446118ed565b73ffffffffffffffffffffffffffffffffffffffff16148061067357506106728161066d6118ed565b6112f5565b5b6106b2576040517f08c379a00000000000000000000000000000000000000000000000000000000081526004016106a9906131eb565b60405180910390fd5b6106bc83836118f5565b505050565b6106d26106cc6118ed565b826119ae565b610711576040517f08c379a0000000000000000000000000000000000000000000000000000000008152600401610708906132eb565b60405180910390fd5b61071c838383611a8c565b505050565b61073c83838360405180602001604052806000815250610d56565b505050565b6000806002600084815260200190815260200160002060009054906101000a900473ffffffffffffffffffffffffffffffffffffffff169050600073ffffffffffffffffffffffffffffffffffffffff168173ffffffffffffffffffffffffffffffffffffffff1614156107ea576040517f08c379a00000000000000000000000000000000000000000000000000000000081526004016107e19061322b565b60405180910390fd5b80915050919050565b60008073ffffffffffffffffffffffffffffffffffffffff168273ffffffffffffffffffffffffffffffffffffffff161415610864576040517f08c379a000000000000000000000000000000000000000000000000000000000815260040161085b9061320b565b60405180910390fd5b600360008373ffffffffffffffffffffffffffffffffffffffff1673ffffffffffffffffffffffffffffffffffffffff168152602001908152602001600020549050919050565b600e6020528060005260406000206000915090505481565b6060600180546108d2906135f9565b80601f01602080910402602001604051908101604052809291908181526020018280546108fe906135f9565b801561094b5780601f106109205761010080835404028352916020019161094b565b820191906000526020600020905b81548152906001019060200180831161092e57829003601f168201915b5050505050905090565b600860205280600052604060002060009150905080600001549080600101805461097e906135f9565b80601f01602080910402602001604051908101604052809291908181526020018280546109aa906135f9565b80156109f75780601f106109cc576101008083540402835291602001916109f7565b820191906000526020600020905b8154815290600101906020018083116109da57829003601f168201915b505050505090806002018054610a0c906135f9565b80601f0160208091040260200160405190810160405280929190818152602001828054610a38906135f9565b8015610a855780601f10610a5a57610100808354040283529160200191610a85565b820191906000526020600020905b815481529060010190602001808311610a6857829003601f168201915b5050505050908060030154908060040154908060050154905086565b610aa96118ed565b73ffffffffffffffffffffffffffffffffffffffff168273ffffffffffffffffffffffffffffffffffffffff161415610b17576040517f08c379a0000000000000000000000000000000000000000000000000000000008152600401610b0e906131ab565b60405180910390fd5b8060056000610b246118ed565b73ffffffffffffffffffffffffffffffffffffffff1673ffffffffffffffffffffffffffffffffffffffff16815260200190815260200160002060008473ffffffffffffffffffffffffffffffffffffffff1673ffffffffffffffffffffffffffffffffffffffff16815260200190815260200160002060006101000a81548160ff0219169083151502179055508173ffffffffffffffffffffffffffffffffffffffff16610bd16118ed565b73ffffffffffffffffffffffffffffffffffffffff167f17307eab39ab6107e8899845ad3d59bd9653f200f220920489ca2b5937696c3183604051610c169190612f72565b60405180910390a35050565b6009806000018054610c33906135f9565b80601f0160208091040260200160405190810160405280929190818152602001828054610c5f906135f9565b8015610cac5780601f10610c8157610100808354040283529160200191610cac565b820191906000526020600020905b815481529060010190602001808311610c8f57829003601f168201915b505050505090806001018054610cc1906135f9565b80601f0160208091040260200160405190810160405280929190818152602001828054610ced906135f9565b8015610d3a5780601f10610d0f57610100808354040283529160200191610d3a565b820191906000526020600020905b815481529060010190602001808311610d1d57829003601f168201915b5050505050908060020154908060030154908060040154905085565b610d67610d616118ed565b836119ae565b610da6576040517f08c379a0000000000000000000000000000000000000000000000000000000008152600401610d9d906132eb565b60405180910390fd5b610db284848484611ce8565b50505050565b60606000600860008481526020019081526020016000206040518060c001604052908160008201548152602001600182018054610df4906135f9565b80601f0160208091040260200160405190810160405280929190818152602001828054610e20906135f9565b8015610e6d5780601f10610e4257610100808354040283529160200191610e6d565b820191906000526020600020905b815481529060010190602001808311610e5057829003601f168201915b50505050508152602001600282018054610e86906135f9565b80601f0160208091040260200160405190810160405280929190818152602001828054610eb2906135f9565b8015610eff5780601f10610ed457610100808354040283529160200191610eff565b820191906000526020600020905b815481529060010190602001808311610ee257829003601f168201915b50505050508152602001600382015481526020016004820154815260200160058201548152505090506000610f378260600151611d44565b90506000610f488360800151611d44565b90506000610f598460a00151611d44565b90506000610f9f8560200151610f6e89611d44565b8760400151878787604051602001610f8b96959493929190612e44565b604051602081830303815290604052611ef1565b9050600081604051602001610fb49190612ee9565b6040516020818303038152906040529050809650505050505050919050565b6000600e60003373ffffffffffffffffffffffffffffffffffffffff1673ffffffffffffffffffffffffffffffffffffffff16815260200190815260200160002054905060006008600083815260200190815260200160002090506110e66040518060600160405280603c8152602001613e76603c9139826001018054611059906135f9565b80601f0160208091040260200160405190810160405280929190818152602001828054611085906135f9565b80156110d25780601f106110a7576101008083540402835291602001916110d2565b820191906000526020600020905b8154815290600101906020018083116110b557829003601f168201915b5050505050836003015484600501546120af565b6111be6040518060400160405280601b81526020017f426f73732025732068617320257320485020616e6420257320414400000000008152506009600001805461112f906135f9565b80601f016020809104026020016040519081016040528092919081815260200182805461115b906135f9565b80156111a85780601f1061117d576101008083540402835291602001916111a8565b820191906000526020600020905b81548152906001019060200180831161118b57829003601f168201915b50505050506009600201546009600401546120af565b6000816003015411611205576040517f08c379a00000000000000000000000000000000000000000000000000000000081526004016111fc9061324b565b60405180910390fd5b60006009600201541161124d576040517f08c379a00000000000000000000000000000000000000000000000000000000081526004016112449061312b565b60405180910390fd5b8060050154600960020154101561126e57600060096002018190555061128d565b8060050154600960020154611283919061350f565b6009600201819055505b600960040154816003015410156112ad57600081600301819055506112cb565b60096004015481600301546112c2919061350f565b81600301819055505b6112f1604051806060016040528060278152602001613e0f602791398260030154612151565b5050565b6000600560008473ffffffffffffffffffffffffffffffffffffffff1673ffffffffffffffffffffffffffffffffffffffff16815260200190815260200160002060008373ffffffffffffffffffffffffffffffffffffffff1673ffffffffffffffffffffffffffffffffffffffff16815260200190815260200160002060009054906101000a900460ff16905092915050565b600061139560066121ed565b90506113a133826121fb565b6040518060c00160405280838152602001600784815481106113ec577f4e487b7100000000000000000000000000000000000000000000000000000000600052603260045260246000fd5b90600052602060002090600602016001018054611408906135f9565b80601f0160208091040260200160405190810160405280929190818152602001828054611434906135f9565b80156114815780601f1061145657610100808354040283529160200191611481565b820191906000526020600020905b81548152906001019060200180831161146457829003601f168201915b50505050508152602001600784815481106114c5577f4e487b7100000000000000000000000000000000000000000000000000000000600052603260045260246000fd5b906000526020600020906006020160020180546114e1906135f9565b80601f016020809104026020016040519081016040528092919081815260200182805461150d906135f9565b801561155a5780601f1061152f5761010080835404028352916020019161155a565b820191906000526020600020905b81548152906001019060200180831161153d57829003601f168201915b505050505081526020016007848154811061159e577f4e487b7100000000000000000000000000000000000000000000000000000000600052603260045260246000fd5b9060005260206000209060060201600301548152602001600784815481106115ef577f4e487b7100000000000000000000000000000000000000000000000000000000600052603260045260246000fd5b906000526020600020906006020160030154815260200160078481548110611640577f4e487b7100000000000000000000000000000000000000000000000000000000600052603260045260246000fd5b9060005260206000209060060201600501548152506008600083815260200190815260200160002060008201518160000155602082015181600101908051906020019061168e9291906126b9565b5060408201518160020190805190602001906116ab9291906126b9565b50606082015181600301556080820151816004015560a0820151816005015590505061170d6040518060400160405280601881526020017f4d696e746564204e465420772f20746f6b656e496420257300000000000000008152508284612219565b80600e60003373ffffffffffffffffffffffffffffffffffffffff1673ffffffffffffffffffffffffffffffffffffffff1681526020019081526020016000208190555061175b6006611801565b5050565b6117fb848484846040516024016117799493929190612faf565b6040516020818303038152906040527f8d142cdd000000000000000000000000000000000000000000000000000000007bffffffffffffffffffffffffffffffffffffffffffffffffffffffff19166020820180517bffffffffffffffffffffffffffffffffffffffffffffffffffffffff83818316178352505050506122b8565b50505050565b6001816000016000828254019250508190555050565b60007f01ffc9a7000000000000000000000000000000000000000000000000000000007bffffffffffffffffffffffffffffffffffffffffffffffffffffffff1916827bffffffffffffffffffffffffffffffffffffffffffffffffffffffff1916149050919050565b60008073ffffffffffffffffffffffffffffffffffffffff166002600084815260200190815260200160002060009054906101000a900473ffffffffffffffffffffffffffffffffffffffff1673ffffffffffffffffffffffffffffffffffffffff1614159050919050565b600033905090565b816004600083815260200190815260200160002060006101000a81548173ffffffffffffffffffffffffffffffffffffffff021916908373ffffffffffffffffffffffffffffffffffffffff160217905550808273ffffffffffffffffffffffffffffffffffffffff1661196883610741565b73ffffffffffffffffffffffffffffffffffffffff167f8c5be1e5ebec7d5bd14f71427d1e84f3dd0314c0f7b2291e5b200ac8c7c3b92560405160405180910390a45050565b60006119b982611881565b6119f8576040517f08c379a00000000000000000000000000000000000000000000000000000000081526004016119ef906131cb565b60405180910390fd5b6000611a0383610741565b90508073ffffffffffffffffffffffffffffffffffffffff168473ffffffffffffffffffffffffffffffffffffffff161480611a7257508373ffffffffffffffffffffffffffffffffffffffff16611a5a84610524565b73ffffffffffffffffffffffffffffffffffffffff16145b80611a835750611a8281856112f5565b5b91505092915050565b8273ffffffffffffffffffffffffffffffffffffffff16611aac82610741565b73ffffffffffffffffffffffffffffffffffffffff1614611b02576040517f08c379a0000000000000000000000000000000000000000000000000000000008152600401611af9906132ab565b60405180910390fd5b600073ffffffffffffffffffffffffffffffffffffffff168273ffffffffffffffffffffffffffffffffffffffff161415611b72576040517f08c379a0000000000000000000000000000000000000000000000000000000008152600401611b699061318b565b60405180910390fd5b611b7d8383836122e1565b611b886000826118f5565b6001600360008573ffffffffffffffffffffffffffffffffffffffff1673ffffffffffffffffffffffffffffffffffffffff1681526020019081526020016000206000828254611bd8919061350f565b925050819055506001600360008473ffffffffffffffffffffffffffffffffffffffff1673ffffffffffffffffffffffffffffffffffffffff1681526020019081526020016000206000828254611c2f919061342e565b92505081905550816002600083815260200190815260200160002060006101000a81548173ffffffffffffffffffffffffffffffffffffffff021916908373ffffffffffffffffffffffffffffffffffffffff160217905550808273ffffffffffffffffffffffffffffffffffffffff168473ffffffffffffffffffffffffffffffffffffffff167fddf252ad1be2c89b69c2b068fc378daa952ba7f163c4a11628f55a4df523b3ef60405160405180910390a4505050565b611cf3848484611a8c565b611cff848484846122e6565b611d3e576040517f08c379a0000000000000000000000000000000000000000000000000000000008152600401611d359061314b565b60405180910390fd5b50505050565b60606000821415611d8c576040518060400160405280600181526020017f30000000000000000000000000000000000000000000000000000000000000008152509050611eec565b600082905060005b60008214611dbe578080611da79061365c565b915050600a82611db79190613484565b9150611d94565b60008167ffffffffffffffff811115611e00577f4e487b7100000000000000000000000000000000000000000000000000000000600052604160045260246000fd5b6040519080825280601f01601f191660200182016040528015611e325781602001600182028036833780820191505090505b5090505b60008514611ee557600182611e4b919061350f565b9150600a85611e5a91906136a5565b6030611e66919061342e565b60f81b818381518110611ea2577f4e487b7100000000000000000000000000000000000000000000000000000000600052603260045260246000fd5b60200101907effffffffffffffffffffffffffffffffffffffffffffffffffffffffffffff1916908160001a905350600a85611ede9190613484565b9450611e36565b8093505050505b919050565b60606000825190506000811415611f1a57604051806020016040528060008152509150506120aa565b60006003600283611f2b919061342e565b611f359190613484565b6004611f4191906134b5565b90506000602082611f52919061342e565b67ffffffffffffffff811115611f91577f4e487b7100000000000000000000000000000000000000000000000000000000600052604160045260246000fd5b6040519080825280601f01601f191660200182016040528015611fc35781602001600182028036833780820191505090505b5090506000604051806060016040528060408152602001613e36604091399050600181016020830160005b868110156120675760038101905062ffffff818a015116603f8160121c168401518060081b905060ff603f83600c1c1686015116810190508060081b905060ff603f8360061c1686015116810190508060081b905060ff603f831686015116810190508060e01b90508084526004840193505050611fee565b50600386066001811461208157600281146120915761209c565b613d3d60f01b600283035261209c565b603d60f81b60018303525b508484525050819450505050505b919050565b61214b848484846040516024016120c99493929190613009565b6040516020818303038152906040527fd5cf17d0000000000000000000000000000000000000000000000000000000007bffffffffffffffffffffffffffffffffffffffffffffffffffffffff19166020820180517bffffffffffffffffffffffffffffffffffffffffffffffffffffffff83818316178352505050506122b8565b50505050565b6121e982826040516024016121679291906130bd565b6040516020818303038152906040527f9710a9d0000000000000000000000000000000000000000000000000000000007bffffffffffffffffffffffffffffffffffffffffffffffffffffffff19166020820180517bffffffffffffffffffffffffffffffffffffffffffffffffffffffff83818316178352505050506122b8565b5050565b600081600001549050919050565b61221582826040518060200160405280600081525061247d565b5050565b6122b3838383604051602401612231939291906130ed565b6040516020818303038152906040527f969cdd03000000000000000000000000000000000000000000000000000000007bffffffffffffffffffffffffffffffffffffffffffffffffffffffff19166020820180517bffffffffffffffffffffffffffffffffffffffffffffffffffffffff83818316178352505050506122b8565b505050565b60008151905060006a636f6e736f6c652e6c6f679050602083016000808483855afa5050505050565b505050565b60006123078473ffffffffffffffffffffffffffffffffffffffff166124d8565b15612470578373ffffffffffffffffffffffffffffffffffffffff1663150b7a026123306118ed565b8786866040518563ffffffff1660e01b81526004016123529493929190612f26565b602060405180830381600087803b15801561236c57600080fd5b505af192505050801561239d57506040513d601f19601f8201168201806040525081019061239a91906129fd565b60015b612420573d80600081146123cd576040519150601f19603f3d011682016040523d82523d6000602084013e6123d2565b606091505b50600081511415612418576040517f08c379a000000000000000000000000000000000000000000000000000000000815260040161240f9061314b565b60405180910390fd5b805181602001fd5b63150b7a0260e01b7bffffffffffffffffffffffffffffffffffffffffffffffffffffffff1916817bffffffffffffffffffffffffffffffffffffffffffffffffffffffff191614915050612475565b600190505b949350505050565b61248783836124eb565b61249460008484846122e6565b6124d3576040517f08c379a00000000000000000000000000000000000000000000000000000000081526004016124ca9061314b565b60405180910390fd5b505050565b600080823b905060008111915050919050565b600073ffffffffffffffffffffffffffffffffffffffff168273ffffffffffffffffffffffffffffffffffffffff16141561255b576040517f08c379a00000000000000000000000000000000000000000000000000000000081526004016125529061326b565b60405180910390fd5b61256481611881565b156125a4576040517f08c379a000000000000000000000000000000000000000000000000000000000815260040161259b9061316b565b60405180910390fd5b6125b0600083836122e1565b6001600360008473ffffffffffffffffffffffffffffffffffffffff1673ffffffffffffffffffffffffffffffffffffffff1681526020019081526020016000206000828254612600919061342e565b92505081905550816002600083815260200190815260200160002060006101000a81548173ffffffffffffffffffffffffffffffffffffffff021916908373ffffffffffffffffffffffffffffffffffffffff160217905550808273ffffffffffffffffffffffffffffffffffffffff16600073ffffffffffffffffffffffffffffffffffffffff167fddf252ad1be2c89b69c2b068fc378daa952ba7f163c4a11628f55a4df523b3ef60405160405180910390a45050565b8280546126c5906135f9565b90600052602060002090601f0160209004810192826126e7576000855561272e565b82601f1061270057805160ff191683800117855561272e565b8280016001018555821561272e579182015b8281111561272d578251825591602001919060010190612712565b5b50905061273b919061273f565b5090565b5b80821115612758576000816000905550600101612740565b5090565b600061276f61276a846133ba565b613395565b90508281526020810184848401111561278757600080fd5b6127928482856135b7565b509392505050565b6000813590506127a981613db2565b92915050565b6000813590506127be81613dc9565b92915050565b6000813590506127d381613de0565b92915050565b6000815190506127e881613de0565b92915050565b600082601f8301126127ff57600080fd5b813561280f84826020860161275c565b91505092915050565b60008135905061282781613df7565b92915050565b60006020828403121561283f57600080fd5b600061284d8482850161279a565b91505092915050565b6000806040838503121561286957600080fd5b60006128778582860161279a565b92505060206128888582860161279a565b9150509250929050565b6000806000606084860312156128a757600080fd5b60006128b58682870161279a565b93505060206128c68682870161279a565b92505060406128d786828701612818565b9150509250925092565b600080600080608085870312156128f757600080fd5b60006129058782880161279a565b94505060206129168782880161279a565b935050604061292787828801612818565b925050606085013567ffffffffffffffff81111561294457600080fd5b612950878288016127ee565b91505092959194509250565b6000806040838503121561296f57600080fd5b600061297d8582860161279a565b925050602061298e858286016127af565b9150509250929050565b600080604083850312156129ab57600080fd5b60006129b98582860161279a565b92505060206129ca85828601612818565b9150509250929050565b6000602082840312156129e657600080fd5b60006129f4848285016127c4565b91505092915050565b600060208284031215612a0f57600080fd5b6000612a1d848285016127d9565b91505092915050565b600060208284031215612a3857600080fd5b6000612a4684828501612818565b91505092915050565b612a5881613543565b82525050565b612a6781613555565b82525050565b6000612a78826133eb565b612a828185613401565b9350612a928185602086016135c6565b612a9b81613792565b840191505092915050565b6000612ab1826133f6565b612abb8185613412565b9350612acb8185602086016135c6565b612ad481613792565b840191505092915050565b6000612aea826133f6565b612af48185613423565b9350612b048185602086016135c6565b80840191505092915050565b6000612b1d605e83613423565b9150612b28826137a3565b605e82019050919050565b6000612b40600b83613423565b9150612b4b82613818565b600b82019050919050565b6000612b63602883613412565b9150612b6e82613841565b604082019050919050565b6000612b86603283613412565b9150612b9182613890565b604082019050919050565b6000612ba9601c83613412565b9150612bb4826138df565b602082019050919050565b6000612bcc600e83613423565b9150612bd782613908565b600e82019050919050565b6000612bef602483613412565b9150612bfa82613931565b604082019050919050565b6000612c12601983613412565b9150612c1d82613980565b602082019050919050565b6000612c35602c83613412565b9150612c40826139a9565b604082019050919050565b6000612c58603883613412565b9150612c63826139f8565b604082019050919050565b6000612c7b602a83613412565b9150612c8682613a47565b604082019050919050565b6000612c9e602983613412565b9150612ca982613a96565b604082019050919050565b6000612cc1602d83613412565b9150612ccc82613ae5565b604082019050919050565b6000612ce4600483613423565b9150612cef82613b34565b600482019050919050565b6000612d07602083613412565b9150612d1282613b5d565b602082019050919050565b6000612d2a602c83613412565b9150612d3582613b86565b604082019050919050565b6000612d4d602983613412565b9150612d5882613bd5565b604082019050919050565b6000612d70600a83613423565b9150612d7b82613c24565b600a82019050919050565b6000612d93602183613412565b9150612d9e82613c4d565b604082019050919050565b6000612db6601d83613423565b9150612dc182613c9c565b601d82019050919050565b6000612dd9603183613412565b9150612de482613cc5565b604082019050919050565b6000612dfc603d83613423565b9150612e0782613d14565b603d82019050919050565b6000612e1f602d83613423565b9150612e2a82613d63565b602d82019050919050565b612e3e816135ad565b82525050565b6000612e4f82612d63565b9150612e5b8289612adf565b9150612e6682612b33565b9150612e728288612adf565b9150612e7d82612b10565b9150612e898287612adf565b9150612e9482612def565b9150612ea08286612adf565b9150612eab82612bbf565b9150612eb78285612adf565b9150612ec282612e12565b9150612ece8284612adf565b9150612ed982612cd7565b9150819050979650505050505050565b6000612ef482612da9565b9150612f008284612adf565b915081905092915050565b6000602082019050612f206000830184612a4f565b92915050565b6000608082019050612f3b6000830187612a4f565b612f486020830186612a4f565b612f556040830185612e35565b8181036060830152612f678184612a6d565b905095945050505050565b6000602082019050612f876000830184612a5e565b92915050565b60006020820190508181036000830152612fa78184612aa6565b905092915050565b60006080820190508181036000830152612fc98187612aa6565b90508181036020830152612fdd8186612aa6565b9050612fec6040830185612e35565b8181036060830152612ffe8184612aa6565b905095945050505050565b600060808201905081810360008301526130238187612aa6565b905081810360208301526130378186612aa6565b90506130466040830185612e35565b6130536060830184612e35565b95945050505050565b600060a08201905081810360008301526130768188612aa6565b9050818103602083015261308a8187612aa6565b90506130996040830186612e35565b6130a66060830185612e35565b6130b36080830184612e35565b9695505050505050565b600060408201905081810360008301526130d78185612aa6565b90506130e66020830184612e35565b9392505050565b600060608201905081810360008301526131078186612aa6565b90506131166020830185612e35565b6131236040830184612e35565b949350505050565b6000602082019050818103600083015261314481612b56565b9050919050565b6000602082019050818103600083015261316481612b79565b9050919050565b6000602082019050818103600083015261318481612b9c565b9050919050565b600060208201905081810360008301526131a481612be2565b9050919050565b600060208201905081810360008301526131c481612c05565b9050919050565b600060208201905081810360008301526131e481612c28565b9050919050565b6000602082019050818103600083015261320481612c4b565b9050919050565b6000602082019050818103600083015261322481612c6e565b9050919050565b6000602082019050818103600083015261324481612c91565b9050919050565b6000602082019050818103600083015261326481612cb4565b9050919050565b6000602082019050818103600083015261328481612cfa565b9050919050565b600060208201905081810360008301526132a481612d1d565b9050919050565b600060208201905081810360008301526132c481612d40565b9050919050565b600060208201905081810360008301526132e481612d86565b9050919050565b6000602082019050818103600083015261330481612dcc565b9050919050565b60006020820190506133206000830184612e35565b92915050565b600060c08201905061333b6000830189612e35565b818103602083015261334d8188612aa6565b905081810360408301526133618187612aa6565b90506133706060830186612e35565b61337d6080830185612e35565b61338a60a0830184612e35565b979650505050505050565b600061339f6133b0565b90506133ab828261362b565b919050565b6000604051905090565b600067ffffffffffffffff8211156133d5576133d4613763565b5b6133de82613792565b9050602081019050919050565b600081519050919050565b600081519050919050565b600082825260208201905092915050565b600082825260208201905092915050565b600081905092915050565b6000613439826135ad565b9150613444836135ad565b9250827fffffffffffffffffffffffffffffffffffffffffffffffffffffffffffffffff03821115613479576134786136d6565b5b828201905092915050565b600061348f826135ad565b915061349a836135ad565b9250826134aa576134a9613705565b5b828204905092915050565b60006134c0826135ad565b91506134cb836135ad565b9250817fffffffffffffffffffffffffffffffffffffffffffffffffffffffffffffffff0483118215151615613504576135036136d6565b5b828202905092915050565b600061351a826135ad565b9150613525836135ad565b925082821015613538576135376136d6565b5b828203905092915050565b600061354e8261358d565b9050919050565b60008115159050919050565b60007fffffffff0000000000000000000000000000000000000000000000000000000082169050919050565b600073ffffffffffffffffffffffffffffffffffffffff82169050919050565b6000819050919050565b82818337600083830152505050565b60005b838110156135e45780820151818401526020810190506135c9565b838111156135f3576000848401525b50505050565b6000600282049050600182168061361157607f821691505b6020821081141561362557613624613734565b5b50919050565b61363482613792565b810181811067ffffffffffffffff8211171561365357613652613763565b5b80604052505050565b6000613667826135ad565b91507fffffffffffffffffffffffffffffffffffffffffffffffffffffffffffffffff82141561369a576136996136d6565b5b600182019050919050565b60006136b0826135ad565b91506136bb836135ad565b9250826136cb576136ca613705565b5b828206905092915050565b7f4e487b7100000000000000000000000000000000000000000000000000000000600052601160045260246000fd5b7f4e487b7100000000000000000000000000000000000000000000000000000000600052601260045260246000fd5b7f4e487b7100000000000000000000000000000000000000000000000000000000600052602260045260246000fd5b7f4e487b7100000000000000000000000000000000000000000000000000000000600052604160045260246000fd5b6000601f19601f8301169050919050565b7f222c20226465736372697074696f6e223a20225468697320697320616e204e4660008201527f542074686174206c6574732070656f706c6520706c617920696e20746865206760208201527f616d6520486172727920506f7474657221222c2022696d616765223a20220000604082015250565b7f202d2d204e465420233a20000000000000000000000000000000000000000000600082015250565b7f4572726f723a20426f7373206d757374206861766520485020746f206174746160008201527f636b20626f73732e000000000000000000000000000000000000000000000000602082015250565b7f4552433732313a207472616e7366657220746f206e6f6e20455243373231526560008201527f63656976657220696d706c656d656e7465720000000000000000000000000000602082015250565b7f4552433732313a20746f6b656e20616c7265616479206d696e74656400000000600082015250565b7f2c20226d61785f76616c7565223a000000000000000000000000000000000000600082015250565b7f4552433732313a207472616e7366657220746f20746865207a65726f2061646460008201527f7265737300000000000000000000000000000000000000000000000000000000602082015250565b7f4552433732313a20617070726f766520746f2063616c6c657200000000000000600082015250565b7f4552433732313a206f70657261746f7220717565727920666f72206e6f6e657860008201527f697374656e7420746f6b656e0000000000000000000000000000000000000000602082015250565b7f4552433732313a20617070726f76652063616c6c6572206973206e6f74206f7760008201527f6e6572206e6f7220617070726f76656420666f7220616c6c0000000000000000602082015250565b7f4552433732313a2062616c616e636520717565727920666f7220746865207a6560008201527f726f206164647265737300000000000000000000000000000000000000000000602082015250565b7f4552433732313a206f776e657220717565727920666f72206e6f6e657869737460008201527f656e7420746f6b656e0000000000000000000000000000000000000000000000602082015250565b7f4572726f723a20636861726163746572206d757374206861766520485020746f60008201527f2061747461636b20626f73732e00000000000000000000000000000000000000602082015250565b7f7d205d7d00000000000000000000000000000000000000000000000000000000600082015250565b7f4552433732313a206d696e7420746f20746865207a65726f2061646472657373600082015250565b7f4552433732313a20617070726f76656420717565727920666f72206e6f6e657860008201527f697374656e7420746f6b656e0000000000000000000000000000000000000000602082015250565b7f4552433732313a207472616e73666572206f6620746f6b656e2074686174206960008201527f73206e6f74206f776e0000000000000000000000000000000000000000000000602082015250565b7f7b226e616d65223a202200000000000000000000000000000000000000000000600082015250565b7f4552433732313a20617070726f76616c20746f2063757272656e74206f776e6560008201527f7200000000000000000000000000000000000000000000000000000000000000602082015250565b7f646174613a6170706c69636174696f6e2f6a736f6e3b6261736536342c000000600082015250565b7f4552433732313a207472616e736665722063616c6c6572206973206e6f74206f60008201527f776e6572206e6f7220617070726f766564000000000000000000000000000000602082015250565b7f222c202261747472696275746573223a205b207b202274726169745f7479706560008201527f223a20224865616c746820506f696e7473222c202276616c7565223a20000000602082015250565b7f7d2c207b202274726169745f74797065223a202241747461636b2044616d616760008201527f65222c202276616c7565223a2000000000000000000000000000000000000000602082015250565b613dbb81613543565b8114613dc657600080fd5b50565b613dd281613555565b8114613ddd57600080fd5b50565b613de981613561565b8114613df457600080fd5b50565b613e00816135ad565b8114613e0b57600080fd5b5056fe426f73732061747461636b656420706c617965722e204e657720706c617965722068702025730a4142434445464748494a4b4c4d4e4f505152535455565758595a6162636465666768696a6b6c6d6e6f707172737475767778797a303132333435363738392b2f0a506c6179657220772f206368617261637465722025732061626f757420746f2061747461636b2e2048617320257320485020616e64202573204144a264697066735822122099e30f5dc2e990fcc80c6b1e6f09662daea081eb5aac10010eabc1e68075a73864736f6c63430008040033446f6e6520696e697469616c697a696e6720257320772f2048502025732c20696d67202573446f6e6520696e697469616c697a696e6720626f737320257320772f2048502025732c20696d67202573",
    "linkReferences": {},
    "deployedLinkReferences": {}
}